:08000000420C040000000000A6
:040034003402000092
:080040003E03000076030000FE
:04005400180400008C
:04008400FC0200007A
:10020000851F780034FC2F00044288000410200071
:1002100014428800E4FF2F0024428800C40020001C
:1002200034428800D822EF00DE22EF0074FF2F0056
:1002300044428800B4FF2F0054428800F4EF2F009E
:10024000644288004E28EF000402200084428800A7
:10025000440020009442880044022000A442880008
:1002600084002000B442880084022000C442880038
:10027000C4002000D4428800C4022000E442880068
:1002800004012000F4428800040320000443880095
:1002900044012000144388004403200024438800C4
:1002A00084012000344388008403200044438800F4
:1002B000C40120005443880030C0B3006CE8B7008C
:1002C0003F68EF00D44180006020E100110034005D
:1002D0006CC8BF003C48E30007003A00D4418000EE
:1002E000A3002000110009000302D80001007800DB
:1002F0003FE8B7003A28EF006C68ED00D441800079
:10030000A3002000110009000302D8003AA8B7009A
:10031000ECFF3700E082BF004608B700E0A2B7005C
:10032000DA82BF004208B700DAA2B7003CC8BF00BB
:100330000160EF001080B200050032003080B20092
:100340000F0032001080B200190032002400370084
:100350003CC8BF000000FB00E1025000050278002D
:100360006220B8008484200004004000000278006D
:1003700014007800E002B600E0A2B70019003700D0
:100380003CC8BF000000FB00E102500005027800FD
:100390006220B8008484200004004000000278003D
:1003A00014007800E002B600E0A2B7000D003700AC
:1003B0003CC8BF000000FB00E102500005027800CD
:1003C0006220B8008484200004004000000278000D
:1003D00014007800DA02B600DAA2B7000100370094
:1003E000000037003E48E20007003200DA82BF001A
:1003F0004008B60080027800050078006208B70067
:10040000DAA2B7000D003700DA82BF004008B6005C
:10041000800278003FC8BF000000FB0000027800A7
:100420006220B800E484200004004000000278004C
:100430001400780000807200DAA2B7003D48E200A4
:1004400004003200DA82BF004408B600DAA2B70026
:10045000030037004488EE00DA02B700DAA2B700E2
:10046000CF027800000006004200F8003600F800D5
:100470003200F800801F7800200020000C000900E6
:10048000B01F78008460A9000021EF001288BF002F
:100490000080B200050032001080B2000F00320070
:1004A0003080B200190032002400370010C0B300C1
:1004B0003CE8B70004C8BF003DE8B7003E68EF0065
:1004C0001008F8003A08F9000001020000000000DE
:1004D00014002000944088001800370020C0B300AA
:1004E0003CE8B70006C8BF003DE8B7003E68EF0033
:1004F0001008F8003A08F9000001020000000000AE
:1005000024002000944088000C00370030C0B30065
:100510003CE8B70008C8BF003DE8B7000AC8BF0004
:100520003EE8B7001008F8003A08F90000010200A0
:10053000000000001228EF00000037008460A900CE
:10054000A00120000C0009004F1078004F00780037
:100550003200F9003600F9004200F90000400600C0
:100560003A48E20013003A000208E2000A003A00AA
:1005700014002000144088000E08F8002601F9003D
:100580001221EF00C48B290074088800040328009E
:1005900094088800060037000228EF00D621EF00FB
:1005A0002601F8000E08F9001221EF000C08A9003E
:1005B000100037000028EC00044080006220E100B9
:1005C000010034000028EF000088BF000080B20066
:1005D000050032001080B200040032003080B2000A
:1005E000030032000300370002003700010037002B
:1005F00000003700000006004200F8003600F80056
:100600003200F800801F7800200020000C00090054
:10061000B01F780086E0A900D422AF00090037009F
:100620008240A90010C0B3000DE8B7001021EF0010
:10063000C48B29006408880004032800840888000B
:10064000050037008240A8001021EF003A68EF0053
:10065000B00202000000000086E0A900A001200016
:100660000C0009004F1078004F0078003200F900AC
:100670003600F9004200F900004006004200F80090
:100680003600F8003200F800801F780020002000BB
:100690000C000900B01F780084C0A9000D68EC00B0
:1006A0000DC8BF000000FB006300E100060035003C
:1006B0008240A8001021EF0010C0B3003AE8B70054
:1006C000B00202000000000084C0A900A0012000C8
:1006D0000C0009004F1078004F0078003200F9003C
:1006E0003600F9004200F900004006004200F80020
:1006F0003600F8003200F800801F7800200020004B
:100700000C000900B01F780084E0A9000C08AA00C2
:1007100084E0A900A00120000C0009004F1078001F
:100720004F0078003200F9003600F9004200F9006D
:1007300000400600851F7800C50020000300090066
:10074000B51F7800090020004300AF001900200009
:10075000891F78008384680001F0A6000300370039
:100760008180EA000000EA00E080480003F0A60073
:10077000030037008381EA000201EA00E0814900BA
:1007800003026900150032000002EB008002EB005A
:100790000003EB008003EB00080220004200A900E8
:1007A0000080D2008180D2000482D2008582D200F3
:1007B0000328E10001003A0002A0E1000300390033
:1007C0000202520083825A004200A8000683D2002F
:1007D0008783D2000804E900F0FF3A0009F0A60080
:1007E000070037000600EA000100320002003A006C
:1007F0008700EA00050037008780EA000300370021
:10080000870078000600780000003700CF047800E9
:100810000900E000010032000400BE0025012000B4
:1008200003000900CF127800CF0278000000060014
:100830004200F8003600F8003200F800801F78000F
:10084000200020000C000900B01F78008560A9007E
:100850002400200034158800A002A900A022A800CE
:10086000A002AE00FEFF37008082BF001428B40053
:10087000B4408000030020000480490016A8B7009F
:100880003400200034158800A002A900A022A8008E
:10089000A002AE00FEFF37008082BF001828B4001F
:1008A000D440800003002000048049001AA8B7004B
:1008B0001400200034158800A002A900A022A8007E
:1008C000A002AE00FEFF37008082BF001C28B400EB
:1008D000F440800003002000048049001EA8B700F7
:1008E0002028EC00044180008487B2001F003A00F9
:1008F0004300A9001488BF00B14080008207200097
:10090000030020009A0302000000000022A8B700A4
:100910001428EF001628EF004300A9001888BF0034
:10092000D140800082072000030020009A030200CB
:100930000000000024A8B7001828EF001A28EF00D4
:100940004300A9001C88BF00F140800082072000FE
:10095000030020009A0302000000000026A8B70050
:100960001C28EF001E28EF002028EF008560A9005A
:10097000A00120000C0009004F1078004F00780003
:100980003200F9003600F9004200F900004006008C
:1009900014FF2F004415880004002200141588005D
:1009A000F4F1210024158800040E280004158800A5
:1009B0000421EF00340C20001408880004032800F0
:1009C000240888000021EF008C60A8001021EF00AF
:1009D0008CC0A8001221EF008CE0A8008EE0A800D7
:1009E0008240A8008D60A80081E0A9004220EF00AD
:1009F00081E0A800044820001409880004052000B4
:100A00002409880044A62000440988002621EF001C
:100A10002621EF0004002800040E880004012000B5
:100A2000440E8800A4292000240E8800D621EF005F
:100A3000000006002601F8002808F9004441800063
:100A400043A620000418E100090031004441800061
:100A5000F3FF27000418E1000500390044A6200038
:100A60003409880044A6200044418800060037006D
:100A700044418000F3FF27000418E1000200310028
:100A80002621EF002828EF002808F800D601F900F9
:100A9000D621D50062000900000000000000060019
:100AA000851F7800C500200003000900B51F7800ED
:100AB0000002780081027800020378008303780046
:100AC0000000EB008000EB000001EB008001EB0078
:100AD0000800A10007F0A600080037000800A000E9
:100AE0008783EA000683EA008582EA000402EA00BE
:100AF000E0824A0060034B00E0834B0085047200F3
:100B000002003A00870473001500320039472000C4
:100B10000340A7000B0037004200A9000482D20066
:100B20008582D2000683D2008783D2000080D20063
:100B30008180D2000281D2008381D2008904E90041
:100B4000F3FF3A00C44CDD004200A90009F0A10007
:100B50000340A10083816C000800A70003F0A000FF
:100B60002501200003000900CF127800CF02780091
:100B700000000600881F78002801200004000900FA
:100B8000B81F78008005EB006066B80003047800A9
:100B900087047800FA7F20004200A9004220A900C3
:100BA00044C4DE00080465000800E0007100320063
:100BB0004200A9004220A900C4CCDE0089046500DF
:100BC0000900E0006B0032000884440009B0A7006F
:100BD00004003700F83FB1006600320065003900BC
:100BE000030037001A4020008542450061003100B3
:100BF000878669004200A9004220A900F300B200E4
:100C00000340A000F700B2000740A000881F780052
:100C10000124B800002DB8000A0544008B854C0063
:100C20000C80B0000224B8008B0544000C864C00F8
:100C3000012CB8000005EB008B0544000C864C002D
:100C40000A80B0000034B8008B0544000C864C00CC
:100C50000A80B0008005EB000324B8000C064400B5
:100C60000A854C000B80B000022CB8000C06440032
:100C70000A854C000B80B0000134B8000C0644001B
:100C80000A854C000B80B000003CB8000C06440004
:100C90000A854C000B80B0000C0078000006EB00C9
:100CA000032CB8000A0544008B854C000C80B00072
:100CB0000234B8000A0544008B854C000C80B0005B
:100CC0000334B8008B0544000C864C00013CB8008E
:100CD0000A0544008B854C000C80B000023CB80033
:100CE0008B0544000C864C00033CB8000C06440005
:100CF0008A0078000B0178008C01780054002000F5
:100D00004200A9008381D3000281D3008180D300F7
:100D10000080D3000402E900F9FF3A004F04780094
:100D20000804E800010370000100320002003700EF
:100D300003037100080032000340A70006003700DB
:100D40004200A9000080D2008180D2000281D2003E
:100D50008381D2000804E9004444DD0003F0A100CF
:100D60000DF0A70003F0A0000340A10083016C0078
:100D7000030037006000B8006001B80000003700D1
:100D8000A8012000040009004F1478004F047800E7
:100D900000000600851F7800861F78000302780097
:100DA000030378004200A90044A2DE00F57F200082
:100DB0000482620003003A006000B8000001EB000A
:100DC000130037000438B100F300B20037002000F0
:100DD0004200A9000080D2008180D2000281D200AE
:100DE0008381D2008703E900F9FF3A00010078000F
:100DF000820078000370A1000480FD004200A90079
:100E00000482D30006F0A70004F0A00003016A00EA
:100E10004F037800CF02780000000600851F78009D
:100E2000C500200004000900B51F7800000278000A
:100E30008102780083037800020378004200A90051
:100E40004220A9008180D2000180FD00F10FB20094
:100E50000100E0004B0032004200A9004220A9003E
:100E60008381D2000380FD00F30FB2000300E00095
:100E7000440032000080FB0001C04100040031004A
:100E8000F007B1003F0032003E0039000200370099
:100E90001048B0003B00310007856A004200A900FD
:100EA0004220A900F50FB2000570A0004200A90081
:100EB000F70FB2000770A0000621B800062CB8009A
:100EC00083014C00890078004200AF008100E800F7
:100ED0004200A900043CB80083014C0081804C0012
:100EE000072CB80081004C000000E8000100E00081
:100EF0004220AF0001003700030037000300E0008C
:100F00004220AF000500370001F0A70003003700C2
:100F10008381D2008180D2000000E90001017800C5
:100F20004200A9000370A6000900370007F02F0057
:100F3000878161000310B000600149000200E000F9
:100F400003003A000300E00001003A000000E8005E
:100F50000080FD004200A9004220A9008080D3004B
:100F60000AF0A70001F0A00002F0A1000280FD003D
:100F7000814069000380FD00034178000200780091
:100F800003003700000020000100200000003700AF
:100F90004501200004000900CF127800CF0278003C
:100FA000000006000001780081017800014078000F
:100FB0000080FD0000F0A0008180D2000180FD00D3
:100FC0008180FB00E40820008140520006003200CE
:100FD0000000E000040032004200A9000080D300BD
:100FE0008100E900FAFF3A0003F0A6000200370092
:100FF0000000EA000000370000000600851F7800AE
:10100000861F7800871F78002888BF005141800024
:101010008001EB0001F0A7008081EB000301780064
:101020005005020000000000648021000506280031
:101030001660200087F62300BA05020000000000B9
:10104000CA0602000000000001007800820078005B
:1010500002002000832C24000E0702000000000084
:101060002CA8B700714188002C88BF007141800016
:10107000D20702000000000080027800050278001C
:101080006A20B80000A0B700CF0378004F037800B3
:10109000CF02780000000600851F78000C08AF0022
:1010A00026003700444180006124E10004003A003A
:1010B000F4FF290064168800D1A2A80005003700BB
:1010C0002848E20003003A00F4FF29006416880073
:1010D000D1A2A900444180004822DE006124E10041
:1010E00004003A00F4FF290064168800D1C2A80069
:1010F000050037002948E20003003A00F4FF290008
:1011000064168800D1C2A900544180006124E10026
:1011100004003A00E4FF2F0094168800D602A800CD
:10112000050037002A48E20003003A00E4FF2F00E0
:1011300094168800D602A90009003700F4FF2900A0
:1011400064168800D1A2A900F4FF29006416880063
:10115000D1C2A900E4FF2F0094168800D602A9008E
:10116000CF02780000000600851F7800861F7800F7
:10117000871F78000382680004F0A600060037008D
:101180004200A9004220A90001F0A6002600370075
:101190004200A80024003700010278008002780095
:1011A00003037800820378008180D2000180FD0073
:1011B0008381D2000380FD0081C051000500320010
:1011C00004F0A600180037001000200042E0B6002E
:1011D0001500370084407800864178000170A10036
:1011E0000370A10081C051000500320004F0A60088
:1011F0000D0037001000200042E0B6000A00370062
:10120000858053000500320004F0A6000600370078
:101210001000200042E0B600030037004200A900A1
:101220000100370000003700CF0378004F0378003B
:10123000CF02780000000600851F7800C50020005E
:1012400003000900B51F78008004EB0008002800A7
:101250004300AF0083016C000000E00003003A008F
:10126000FAFF27000A8560004220AE0001057800E1
:101270008A856900010378008303780003067800FB
:101280004220A9004200A9000683D2000680FD008A
:10129000F60FB2000600E000A10032004220A900D3
:1012A0004200A9008783D2000780FD00F70FB2003B
:1012B0000700E0009F0032004220A9004200A90080
:1012C0000638E1009C003200A30033000900A100B1
:1012D0000910A0000684530007037800F10FB20044
:1012E0000170A000F30FB2000370A000870220007D
:1012F0000838E100110033004220A9004200A90093
:101300008180D3000080D3000804E900FAFF3A008E
:101310000D003700870220000838E1000900330083
:101320004220A9004200A9008381D3000281D3009A
:101330000804E900FAFF3A000F00370002007800C5
:1013400083007800430037000BF0A600110037003F
:101350000940A7008C0578000000EA000200320076
:1013600081C0EA00010037008100EA000940A700BF
:101370002B003700070037000BF0A60005003700F0
:101380000201EA000200320083C1EA0001003700D6
:101390008301EA00F50FB2004220A9004200A90033
:1013A0000200400083C048004200AF000930A000A6
:1013B0000900A700090037000910A7000100370045
:1013C0000B0037000BF0A700150037000930A7000D
:1013D000290037000960A0001E0037000BF0A700AD
:1013E0000F0037000930A70023003700190037002D
:1013F0000920A1000BF0A700040037008A0578003F
:101400000930A7001C003700360037000940A00053
:1014100001C8B2000170A700CDFF37008A0578002F
:10142000F10FB200810370000A0032000170A700C2
:10143000080037004220A9004200A9000080D20025
:101440008180D2000603E9004220AF00310037005E
:10145000F6FF37000900A7008A0578000910A700E9
:101460008C0578000950A6001A0037000AF0A70082
:101470000080A0001B0037004200A80081C0D300FC
:101480000080D3004200AF000950A0000603E8002E
:10149000200032000950A600080037000000E800D4
:1014A00006003A008140E80004003A0081C0D30001
:1014B0000080D3000603E800160032000900A700F0
:1014C0008A0578000910A7008C0578004220AF003B
:1014D000100037000960A7008A0578000970A7008E
:1014E0008C05780001017000230032000170A1001A
:1014F0000680FD004220A9004200A9000683D30017
:1015000081006B0001F0A0000BF0A60001F0A1002B
:1015100019003700000020000100200016003700ED
:101520000AF0A70083016C000200780083007800B5
:101530001100370010003700F30FB2000370A00055
:10154000F10FB2000170A0000BF0A7000370A10022
:101550000920A00088FF370007045300F10FB200F4
:101560000170A000F30FB2000370A0000910A100E9
:101570000900A00067FF37002501200003000900D3
:10158000CF127800CF02780000000600851F780097
:10159000861F7800871F78002888BF00514180008F
:1015A0008001EB0001F0A7008081EB0003017800CF
:1015B000500502000000000064802100050628009C
:1015C0001660200087F62300BA0502000000000024
:1015D000CA060200000000000100780082007800C6
:1015E0000200200003FA23000E07020000000000A2
:1015F0002CA8B7007141880060BA290041B42300CB
:101600006241800073418000B408020000000000C5
:101610000100310011003A002C88BF0071418000A8
:1016200002342100E3F723000E070200000000004F
:1016300080027800010378004300A90005007800CB
:1016400086007800A2B9290073CF23001C0902008C
:10165000000000002CA8B7007141880000002000A5
:10166000011224006241800073418000B40802002E
:1016700000000000010031000D003A002C88BF007E
:101680007141800002002000031224000E070200B6
:10169000000000002CA8B700714188000428EF006A
:1016A00014002000344088000828EF000C003700A8
:1016B0002C88BF007141800002002000832C240090
:1016C0000E070200000000002CA8B700714188003E
:1016D00014002000244088000628EF000828EF00AE
:1016E0002C88BF0071418000D2070200000000007A
:1016F00000A0B700CF0378004F037800CF02780036
:1017000000000600851F7800861F7800871F78007C
:101710002888BF00514180008001EB0001F0A70044
:101720008081EB00030178005005020000000000FA
:1017300064802100050628001660200087F623003B
:10174000BA05020000000000CA0602000000000006
:1017500061418800724188002C88BF00714180007F
:1017600002002000031324000E0702000000000006
:101770002CA8B70071418800D0DE2000E1B323001F
:101780006241800073418000B40802000000000044
:101790000100310011003A002C88BF007141800027
:1017A000D2A82900F3F723000E0702000000000072
:1017B00080027800010378004300A900050078004A
:1017C0008600780072F62E00C3E623001C09020092
:1017D000000000002CA8B700714188000000200024
:1017E000011224006241800073418000B4080200AD
:1017F00000000000010031000D003A002C88BF00FD
:101800007141800002002000031224000E07020034
:10181000000000002CA8B700714188000428EF00E8
:1018200014002000344088000828EF000C00370026
:101830002C88BF007141800002002000832C24000E
:101840000E070200000000002CA8B70071418800BC
:1018500014002000244088000628EF000828EF002C
:101860002C88BF0071418000D207020000000000F8
:1018700000A0B700CF0378004F037800CF027800B4
:10188000000006000F982000F09F200020A0B70065
:101890000000000040442400A004880040442400CC
:1018A000B004880040442400C00488004044240060
:1018B000F004880081E0A8000E28EF000028EF0067
:1018C0000228EF000C08A90084372000844088001B
:1018D00014002000244088001400200034408800B8
:1018E00014002000444088000A28EF001228EF006E
:1018F0001428EF001628EF001828EF001A28EF0030
:101900001C28EF001E28EF002028EF002228EF00FF
:101910002428EF002628EF00A8A2EF00C804020048
:1019200000000000144080006120E10019003A002E
:101930001A050200000000002608F8002808F90037
:101940000002EB0029E8AF000082EB005441880060
:10195000FE0702000000000080027800C42B200077
:101960000520E1000B003C004200F80081E0A900E6
:1019700042E0EF0081E0A8003A68EF00B002020008
:101980000000000081E0A9004200F90081E0A80009
:101990002621EF00A002A900A022A800A002AE000C
:1019A000FEFF37000088BF000080B2000500320053
:1019B0001080B200140032003080B20023003200E8
:1019C000380037002868EF0010C0B30029E8B700DE
:1019D0002AE8EF004C080200000000002208F8008E
:1019E0002808F9000002EB0029E8AF000082EB00B4
:1019F00054418800C60A02000000000010A8B70089
:101A00000A28EF002700370028E8EF002968EF00D8
:101A100010C0B3002AE8B7004C0802000000000024
:101A20002408F8002808F9000002EB0029E8AF00BC
:101A30000082EB0054418800820B0200000000008D
:101A400010A8B7000A28EF001600370010C0B30036
:101A500028E8B700F0CFB30029E8B7002A68EF0004
:101A60004C080200000000002608F8002808F900D1
:101A70000002EB0029E8AF000082EB00544188002F
:101A8000FE0702000000000010A8B7000428EF00C5
:101A90000628EF000828EF001400200054408800BA
:0C1AA000000037009FFF37000040FE00F0
:0200000401F009
:10000000058300FF3F0000FF308700FF0F3100FF36
:0C0010000F3300FF070000FF03C000FFDB
:00000001FF
;DSPIC30F2010
;CRC=0E68  CREATED="27-ago-16 15:29"
